:100000000C9435000C945D000C945D000C945D0024
:100010000C945D000C945D000C945D000C945D00EC
:100020000C945D000C945D000C945D000C945D00DC
:100030000C945D000C945D000C945D000C945D00CC
:100040000C94DD010C945D000C944D020C9427027D
:100050000C945D000C945D000C945D000C945D00AC
:100060000C945D000C945D00C30311241FBECFEF00
:10007000D8E0DEBFCDBF21E0A6E2B1E001C01D9215
:10008000A03DB207E1F711E0A0E0B1E0E2E4FCE05E
:1000900002C005900D92A632B107D9F710E0C5E372
:1000A000D0E004C02197FE010E942704C433D10789
:1000B000C9F70E947F020C941F060C94000008955B
:1000C000AF92BF92CF92DF92EF92FF920F931F9366
:1000D000CF93DF936C017B018B01040F151FEB01A4
:1000E0005E01AE18BF08C017D10759F06991D6015B
:1000F000ED91FC910190F081E02DC6010995892BCD
:1001000079F7C501DF91CF911F910F91FF90EF908B
:10011000DF90CF90BF90AF900895FC01538D448D38
:10012000252F30E0842F90E0821B930B541710F0A2
:10013000CF96089501970895FC01918D828D9817AF
:1001400061F0A28DAE0FBF2FB11D5D968C91928D87
:100150009F5F9F73928F90E008958FEF9FEF0895B8
:100160002FB7F89480912B0190912C01A0912D0133
:10017000B0912E012FBF8093370190933801A09347
:100180003901B0933A018FE291E00E949C0097FF01
:1001900026C02FB7F89480912B0190912C01A0914B
:1001A0002D01B0912E012FBF4091370150913801A0
:1001B0006091390170913A01841B950BA60BB70B26
:1001C00040913301509134016091350170913601B5
:1001D00084179507A607B707B0F28FEF9FEF089532
:1001E000FC01918D828D981731F0828DE80FF11D01
:1001F000858D90E008958FEF9FEF0895FC01918D1C
:10020000228D892F90E0805C9F4F821B91098F7314
:10021000992708958FE291E00E94FE0021E0892B4A
:1002200009F420E0822F089580E090E0892B29F0E6
:100230000E940A0181110C9400000895FC01A48D14
:10024000A80FB92FB11DA35ABF4F2C91848D90E0F8
:1002500001968F739927848FA689B7892C93A089DB
:10026000B1898C91837080648C93938D848D981365
:1002700006C00288F389E02D80818F7D80830895F8
:10028000EF92FF920F931F93CF93DF93EC0181E0E6
:10029000888F9B8D8C8D98131AC0E889F98980818D
:1002A00085FF15C09FB7F894EE89FF896083E889C0
:1002B000F98980818370806480839FBF81E090E0B2
:1002C000DF91CF911F910F91FF90EF900895F62E3F
:1002D0000B8D10E00F5F1F4F0F731127E02E8C8DD9
:1002E0008E110CC00FB607FCFACFE889F98980811E
:1002F00085FFF5CFCE010E941E01F1CFEB8DEC0FF3
:10030000FD2FF11DE35AFF4FF0829FB7F8940B8F3A
:10031000EA89FB8980818062CFCFCF93DF93EC01A4
:10032000888D8823B9F0AA89BB89E889F9898C91DD
:1003300085FD03C0808186FD0DC00FB607FCF7CF99
:100340008C9185FFF2CF808185FFEDCFCE010E9499
:100350001E01E9CFDF91CF91089542E050E068E1BE
:1003600071E08FE291E00C9460000F931F93CF93A4
:10037000DF93EC0188819981009759F02A813B81B4
:100380002617370730F081E0DF91CF911F910F9151
:1003900008958B016F5F7F4F0E945205009759F0BF
:1003A000998388831B830A832C813D81232B59F7F2
:1003B000FC011082E8CF80E0E7CF1F920F920FB6CA
:1003C0000F9211242F933F938F939F93AF93BF93DB
:1003D00080912B0190912C01A0912D01B0912E01C3
:1003E00030912A0123E0230F2D3758F50196A11DE6
:1003F000B11D20932A0180932B0190932C01A0938F
:100400002D01B0932E018091260190912701A0919A
:100410002801B09129010196A11DB11D80932601EB
:1004200090932701A0932801B0932901BF91AF9128
:100430009F918F913F912F910F900FBE0F901F9022
:10044000189526E8230F0296A11DB11DD2CF1F9249
:100450000F920FB60F9211242F933F934F935F93F8
:100460006F937F938F939F93AF93BF93EF93FF937C
:100470008FE291E00E941E01FF91EF91BF91AF9139
:100480009F918F917F916F915F914F913F912F91AC
:100490000F900FBE0F901F9018951F920F920FB6DE
:1004A0000F9211242F938F939F93EF93FF93E091DB
:1004B0003F01F09140018081E0914501F0914601BA
:1004C00082FD1BC09081809148018F5F8F732091C6
:1004D0004901821741F0E0914801F0E0E15DFE4FF3
:1004E000958F80934801FF91EF919F918F912F916C
:1004F0000F900FBE0F901F9018958081F4CFCF936F
:10050000DF93CDB7DEB72E970FB6F894DEBF0FBEE0
:10051000CDBF789484B5826084BD84B5816084BD8C
:1005200085B5826085BD85B5816085BD80916E0091
:10053000816080936E0010928100809181008260C2
:1005400080938100809181008160809381008091FF
:1005500080008160809380008091B10084608093EE
:10056000B1008091B00081608093B00080917A00EA
:10057000846080937A0080917A00826080937A0010
:1005800080917A00816080937A0080917A008068FF
:1005900080937A001092C100E0913F01F0914001F8
:1005A00082E08083E0913B01F0913C011082E09178
:1005B0003D01F0913E018FEC808310924701E09164
:1005C0004301F091440186E08083E0914101F09184
:1005D0004201808180618083E0914101F09142017C
:1005E000808188608083E0914101F09142018081A7
:1005F00080688083E0914101F091420180818F7D8C
:1006000080834AE050E06BE171E08FE291E00E946C
:1006100060000E94AD0180E0E82E80E0F82E188690
:100620001F821A8619861C861B8670E060E0CE0148
:1006300007960E94B5012F813885811147C0211589
:10064000310519F0C9010E94C90418861F821C8651
:100650001B861A8619861A8219821C821B821E82A8
:100660001D8270E060E0CE0101960E94B5012981F3
:100670003A81811133C02115310519F0C9010E9459
:10068000C9041A8219821E821D821C821B820E944A
:10069000B00097FD2BC08D871E860D811E810F5FD8
:1006A0001F4FB801CE0101960E94B501882379F34E
:1006B00029813A818D819E81BE01635F7F4F820FC8
:1006C000931F0E9418061E830D83E1CF1C861B8694
:1006D0006AE171E0C9010E941806BDCF1E821D8229
:1006E0006AE171E0C9010E941806D1CF8F81988517
:1006F0000097C1F169817A816115710589F1498598
:100700005A852D813E814217530750F10E941806E9
:100710008D819E819C878B871E821D8289819A8113
:10072000009711F00E94C9044B855C856F81788524
:100730008FE291E00E9460000E94AD018F81988558
:10074000009711F00E94C904E114F10409F467CF85
:100750000E940A01882309F462CF0E9400005FCF43
:100760000E94C90489819A8198878F838B819C819B
:100770009A8789878D819E819C878B871A821982AF
:100780001C821B82C9CFEFE2F1E01382128288EE55
:1007900093E0A0E0B0E084839583A683B7838AE0EA
:1007A00091E09183808385EC90E09587848784EC49
:1007B00090E09787868780EC90E0918B808B81EC2E
:1007C00090E0938B828B82EC90E0958B848B86EC0F
:1007D00090E0978B868B118E128E138E148E089557
:1007E0002F923F924F925F926F927F928F929F9241
:1007F000AF92BF92CF92DF92EF92FF920F931F932F
:10080000CF93DF93CDB7DEB7CA1BDB0B0FB6F894DF
:10081000DEBF0FBECDBF09942A88398848885F841F
:100820006E847D848C849B84AA84B984C884DF8090
:10083000EE80FD800C811B81AA81B981CE0FD11D74
:100840000FB6F894DEBF0FBECDBFED010895EE0FD9
:10085000FF1F0590F491E02D09940F931F93CF9300
:10086000DF938230910510F482E090E0E091CE01B8
:10087000F091CF0130E020E0B0E0A0E0309799F4B3
:100880002115310509F44AC0281B390B24303105E4
:10089000D8F58A819B816115710589F1FB019383EC
:1008A0008283FE0111C0408151810281138148176A
:1008B0005907E0F04817590799F4109761F012961C
:1008C0000C93129713961C933296CF01DF91CF9120
:1008D0001F910F9108950093CE011093CF01F4CF93
:1008E0002115310551F04217530738F0A901DB01FA
:1008F0009A01BD01DF01F801C1CFEF01F9CF90935B
:10090000CF018093CE01CDCFFE01E20FF31F819383
:1009100091932250310939832883D7CF2091CC017C
:100920003091CD01232B41F420910201309103013C
:100930003093CD012093CC01209100013091010131
:100940002115310541F42DB73EB740910401509176
:100950000501241B350BE091CC01F091CD01E2178C
:10096000F307A0F42E1B3F0B2817390778F0AC01D2
:100970004E5F5F4F2417350748F04E0F5F1F5093AF
:10098000CD014093CC01819391939FCFF0E0E0E0C3
:100990009CCFCF93DF930097E9F0FC01329713824D
:1009A0001282A091CE01B091CF01ED0130E020E0A4
:1009B0001097A1F420813181820F931F2091CC01E7
:1009C0003091CD012817390709F061C0F093CD01AE
:1009D000E093CC01DF91CF910895EA01CE17DF07B4
:1009E000E8F54A815B819E0141155105B1F7E901A6
:1009F000FB83EA8349915991C40FD51FEC17FD077A
:100A000061F4808191810296840F951FE901998399
:100A10008883828193819B838A83F0E0E0E0129651
:100A20008D919C9113970097B9F52D913C91119759
:100A3000CD010296820F931F2091CC013091CD0100
:100A40002817390739F6309751F51092CF011092D7
:100A5000CE01B093CD01A093CC01BCCFD383C28390
:100A600040815181840F951FC817D90761F44E5FEB
:100A70005F4F88819981480F591F518340838A8134
:100A80009B81938382832115310509F0B0CFF093C8
:100A9000CF01E093CE019ECFFD01DC01C0CF1382D8
:100AA0001282D7CFB0E0A0E0E8E5F5E00C94F203C5
:100AB0008C01009751F4CB010E942D048C01C801D8
:100AC000CDB7DEB7E0E10C940E04FC01E60FF71F92
:100AD0009C0122503109E217F30708F49DC0D901A7
:100AE000CD91DC911197C617D70798F0C530D10585
:100AF00030F3CE0104978617970708F3C61BD70B70
:100B00002297C193D1936D937C93CF010E94C90426
:100B1000D6CF5B01AC1ABD0A4C018C0E9D1EA09174
:100B2000CE01B091CF01512C412CF12CE12C10972A
:100B300031F58091CC019091CD018815990509F08E
:100B40005CC04616570608F058C08091000190918D
:100B50000101009741F48DB79EB740910401509177
:100B60000501841B950BE817F90708F055C0F093B1
:100B7000CD01E093CC01F90171836083A0CF8D9109
:100B80009C91119712966C90129713967C901397E4
:100B9000A815B90559F56C0142E0C40ED11CCA1460
:100BA000DB0420F1AC014A195B09DA0112961597B2
:100BB00080F06282738251834083D9016D937C936C
:100BC000E114F10471F0D7011396FC93EE931297A0
:100BD00076CF22968C0F9D1FF90191838083F301BC
:100BE000EFCFF093CF01E093CE0169CF48165906BD
:100BF00008F42C017D01D3019ACFCB010E942D0472
:100C00007C01009749F0AE01B8010E940F06C801AF
:100C10000E94C904870153CF10E000E050CFFB01D0
:100C2000DC0102C001900D9241505040D8F7089568
:100C3000FB01DC0101900D920020E1F70895F8948A
:020C4000FFCFE4
:100C42000000D001800000000000400160008D0023
:100C52008D01FE009C00F0000D0A004269656E766F
:060C6200656E69646F007D
:00000001FF
